{
  "contractName": "Pokemon",
  "abi": [
    {
      "inputs": [],
      "payable": false,
      "stateMutability": "nonpayable",
      "type": "constructor"
    },
    {
      "constant": false,
      "inputs": [],
      "name": "register",
      "outputs": [],
      "payable": false,
      "stateMutability": "nonpayable",
      "type": "function"
    },
    {
      "constant": false,
      "inputs": [],
      "name": "getPokemons",
      "outputs": [
        {
          "components": [
            {
              "name": "id",
              "type": "uint256"
            },
            {
              "name": "value",
              "type": "uint256"
            },
            {
              "name": "name",
              "type": "string"
            }
          ],
          "name": "",
          "type": "tuple[]"
        }
      ],
      "payable": false,
      "stateMutability": "nonpayable",
      "type": "function"
    },
    {
      "constant": false,
      "inputs": [
        {
          "name": "num",
          "type": "uint256"
        }
      ],
      "name": "random",
      "outputs": [
        {
          "name": "",
          "type": "uint256"
        }
      ],
      "payable": false,
      "stateMutability": "nonpayable",
      "type": "function"
    }
  ],
  "bytecode": "0x60806040526000600155600060025534801561001a57600080fd5b506100686040805190810160405280600781526020017f50696b61636875000000000000000000000000000000000000000000000000008152506100ba640100000000026401000000009004565b6100b56040805190810160405280600981526020017f42756c62617361757200000000000000000000000000000000000000000000008152506100ba640100000000026401000000009004565b6101db565b6001600081548092919060010191905055506060604051908101604052806001548152602001600181526020018281525060008060015481526020019081526020016000206000820151816000015560208201518160010155604082015181600201908051906020019061012f929190610136565b5090505050565b828054600181600116156101000203166002900490600052602060002090601f016020900481019282601f1061017757805160ff19168380011785556101a5565b828001600101855582156101a5579182015b828111156101a4578251825591602001919060010190610189565b5b5090506101b291906101b6565b5090565b6101d891905b808211156101d45760008160009055506001016101bc565b5090565b90565b6107c3806101ea6000396000f300608060405260043610610057576000357c0100000000000000000000000000000000000000000000000000000000900463ffffffff1680631aa3a0081461005c578063b863bd3714610073578063bd6ede73146100b0575b600080fd5b34801561006857600080fd5b506100716100db565b005b34801561007f57600080fd5b5061009a60048036036100959190810190610541565b6102f8565b6040516100a791906106e6565b60405180910390f35b3480156100bc57600080fd5b506100c561032e565b6040516100d291906106a4565b60405180910390f35b60011515600560003373ffffffffffffffffffffffffffffffffffffffff1673ffffffffffffffffffffffffffffffffffffffff16815260200190815260200160002060009054906101000a900460ff16151514151515610171576040517f08c379a0000000000000000000000000000000000000000000000000000000008152600401610168906106c6565b60405180910390fd5b6002600081548092919060010191905055503360046000600254815260200190815260200160002060006101000a81548173ffffffffffffffffffffffffffffffffffffffff021916908373ffffffffffffffffffffffffffffffffffffffff160217905550600360003373ffffffffffffffffffffffffffffffffffffffff1673ffffffffffffffffffffffffffffffffffffffff168152602001908152602001600020600080600161022560026102f8565b0181526020019081526020016000209080600181540180825580915050906001820390600052602060002090600302016000909192909190915060008201548160000155600182015481600101556002820181600201908054600181600116156101000203166002900461029a929190610481565b505050506001600560003373ffffffffffffffffffffffffffffffffffffffff1673ffffffffffffffffffffffffffffffffffffffff16815260200190815260200160002060006101000a81548160ff021916908315150217905550565b6000814244604051808381526020018281526020019250505060405180910390206001900481151561032657fe5b069050919050565b6060600360003373ffffffffffffffffffffffffffffffffffffffff1673ffffffffffffffffffffffffffffffffffffffff168152602001908152602001600020805480602002602001604051908101604052809291908181526020016000905b828210156104785783829060005260206000209060030201606060405190810160405290816000820154815260200160018201548152602001600282018054600181600116156101000203166002900480601f0160208091040260200160405190810160405280929190818152602001828054600181600116156101000203166002900480156104605780601f1061043557610100808354040283529160200191610460565b820191906000526020600020905b81548152906001019060200180831161044357829003601f168201915b5050505050815250508152602001906001019061038f565b50505050905090565b828054600181600116156101000203166002900490600052602060002090601f016020900481019282601f106104ba57805485556104f7565b828001600101855582156104f757600052602060002091601f016020900482015b828111156104f65782548255916001019190600101906104db565b5b5090506105049190610508565b5090565b61052a91905b8082111561052657600081600090555060010161050e565b5090565b90565b6000610539823561073b565b905092915050565b60006020828403121561055357600080fd5b60006105618482850161052d565b91505092915050565b60006105758261070e565b8084526020840193508360208202850161058e85610701565b60005b848110156105c75783830388526105a9838351610645565b92506105b482610724565b9150602088019750600181019050610591565b508196508694505050505092915050565b60006105e382610719565b8084526105f7816020860160208601610745565b61060081610778565b602085010191505092915050565b6000601782527f7573657220616c726561647920726567697374657265640000000000000000006020830152604082019050919050565b600060608301600083015161065d6000860182610695565b5060208301516106706020860182610695565b506040830151848203604086015261068882826105d8565b9150508091505092915050565b61069e81610731565b82525050565b600060208201905081810360008301526106be818461056a565b905092915050565b600060208201905081810360008301526106df8161060e565b9050919050565b60006020820190506106fb6000830184610695565b92915050565b6000602082019050919050565b600081519050919050565b600081519050919050565b6000602082019050919050565b6000819050919050565b6000819050919050565b60005b83811015610763578082015181840152602081019050610748565b83811115610772576000848401525b50505050565b6000601f19601f83011690509190505600a265627a7a72305820af8cc27459fe301e87d0c38e21f4de9a5b305b8c733338ddd7f87cf40f741a146c6578706572696d656e74616cf50037",
  "source": "pragma solidity ^0.4.17;\npragma experimental ABIEncoderV2;\n\ncontract Pokemon {\n    struct pokemon {\n        uint id;\n        uint value;\n        string name;\n    }\n    mapping (uint => pokemon) pokemons;\n    uint pokemonCount = 0;\n    // pokemons[0] = pokemon(0,1,\"Squirtle\"); \n    // pokemons[1] = pokemon(1,1,\"Charmander\");\n    function addPokemon(string _name) private {\n        pokemonCount ++;\n        pokemons[pokemonCount] = pokemon(pokemonCount, 1, _name);\n        \n    }\n    constructor() public {\n        addPokemon(\"Pikachu\");\n        addPokemon(\"Bulbasaur\");\n    }\n    int playerCount = 0;\n    mapping (address  => pokemon[]) pokemonMap;\n    mapping (int => address) playermap;\n    mapping (address => bool) registered;\n    function register() {\n        require(registered[msg.sender]!=true,\"user already registered\");\n        playerCount++;\n        playermap[playerCount] = msg.sender;\n        pokemonMap[msg.sender].push(pokemons[random(uint(2))+1]);\n        registered[msg.sender] = true;\n    }\n    \n    function getPokemons() returns(pokemon[]) {\n        return pokemonMap[msg.sender];\n    }\n    \n    function random(uint num) returns(uint) {\n        return uint256(keccak256(block.timestamp, block.difficulty))%num;\n    }\n    \n    \n    \n}",
  "sourcePath": "/home/aniket/Desktop/Pokemon-DApp/pokemon/contracts/PokemonDApp.sol",
  "compiler": {
    "name": "solc",
    "version": "0.4.24+commit.e67f0147.Emscripten.clang"
  },
  "schemaVersion": "2.0.1",
  "updatedAt": "2018-11-13T09:52:22.423Z"
}