{
  "contractName": "PokemonDApp",
  "abi": [
    {
      "constant": true,
      "inputs": [
        {
          "name": "",
          "type": "uint256"
        }
      ],
      "name": "pokemons",
      "outputs": [
        {
          "name": "id",
          "type": "uint256"
        },
        {
          "name": "name",
          "type": "string"
        },
        {
          "name": "level",
          "type": "uint256"
        }
      ],
      "payable": false,
      "stateMutability": "view",
      "type": "function"
    },
    {
      "constant": true,
      "inputs": [],
      "name": "pokemonCount",
      "outputs": [
        {
          "name": "",
          "type": "uint256"
        }
      ],
      "payable": false,
      "stateMutability": "view",
      "type": "function"
    },
    {
      "inputs": [],
      "payable": false,
      "stateMutability": "nonpayable",
      "type": "constructor"
    }
  ],
  "bytecode": "0x6080604052600060015534801561001557600080fd5b506100636040805190810160405280600781526020017f50696b61636875000000000000000000000000000000000000000000000000008152506100b5640100000000026401000000009004565b6100b06040805190810160405280600981526020017f42756c62617361757200000000000000000000000000000000000000000000008152506100b5640100000000026401000000009004565b6101d6565b600160008154809291906001019190505550606060405190810160405280600154815260200182815260200160018152506000806001548152602001908152602001600020600082015181600001556020820151816001019080519060200190610120929190610131565b506040820151816002015590505050565b828054600181600116156101000203166002900490600052602060002090601f016020900481019282601f1061017257805160ff19168380011785556101a0565b828001600101855582156101a0579182015b8281111561019f578251825591602001919060010190610184565b5b5090506101ad91906101b1565b5090565b6101d391905b808211156101cf5760008160009055506001016101b7565b5090565b90565b610224806101e56000396000f30060806040526004361061004c576000357c0100000000000000000000000000000000000000000000000000000000900463ffffffff1680638583107914610051578063cfbd5bce14610105575b600080fd5b34801561005d57600080fd5b5061007c60048036038101908080359060200190929190505050610130565b6040518084815260200180602001838152602001828103825284818151815260200191508051906020019080838360005b838110156100c85780820151818401526020810190506100ad565b50505050905090810190601f1680156100f55780820380516001836020036101000a031916815260200191505b5094505050505060405180910390f35b34801561011157600080fd5b5061011a6101f2565b6040518082815260200191505060405180910390f35b6000602052806000526040600020600091509050806000015490806001018054600181600116156101000203166002900480601f0160208091040260200160405190810160405280929190818152602001828054600181600116156101000203166002900480156101e25780601f106101b7576101008083540402835291602001916101e2565b820191906000526020600020905b8154815290600101906020018083116101c557829003601f168201915b5050505050908060020154905083565b600154815600a165627a7a723058206508b3d5e950869b1a6ddecfd775adbf9c8b9e7a28598b33a5974e511005698b0029",
  "source": "pragma solidity ^0.4.24;\n\ncontract PokemonDApp {\n    struct Pokemon {\n        uint id;\n        string name;\n        uint level;\n    }\n    mapping(uint => Pokemon) public pokemons;\n    uint public pokemonCount = 0;\n    function addPokemon(string _name) private {\n        pokemonCount ++;\n        pokemons[pokemonCount] = Pokemon(pokemonCount, _name, 1);\n        \n    }\n    constructor() public {\n        addPokemon(\"Pikachu\");\n        addPokemon(\"Bulbasaur\");\n    }\n}",
  "sourcePath": "/home/vaibhav/Pokemon-DApp/pokemon/contracts/PokemonDApp.sol",
  "compiler": {
    "name": "solc",
    "version": "0.4.24+commit.e67f0147.Emscripten.clang"
  },
  "schemaVersion": "2.0.1",
  "updatedAt": "2018-11-12T10:00:04.468Z"
}