{
  "contractName": "PokemonDApp",
  "abi": [
    {
      "inputs": [],
      "payable": false,
      "stateMutability": "nonpayable",
      "type": "constructor"
    },
    {
      "anonymous": false,
      "inputs": [
        {
          "indexed": false,
          "name": "id",
          "type": "uint256"
        }
      ],
      "name": "newPokemon",
      "type": "event"
    },
    {
      "constant": false,
      "inputs": [],
      "name": "register",
      "outputs": [
        {
          "name": "",
          "type": "uint256"
        }
      ],
      "payable": false,
      "stateMutability": "nonpayable",
      "type": "function"
    },
    {
      "constant": true,
      "inputs": [],
      "name": "getPokemons",
      "outputs": [
        {
          "name": "",
          "type": "uint256[]"
        }
      ],
      "payable": false,
      "stateMutability": "view",
      "type": "function"
    },
    {
      "constant": true,
      "inputs": [],
      "name": "isRegistered",
      "outputs": [
        {
          "name": "",
          "type": "bool"
        }
      ],
      "payable": false,
      "stateMutability": "view",
      "type": "function"
    },
    {
      "constant": false,
      "inputs": [],
      "name": "randomDrop",
      "outputs": [],
      "payable": false,
      "stateMutability": "nonpayable",
      "type": "function"
    },
    {
      "constant": true,
      "inputs": [
        {
          "name": "num",
          "type": "uint256"
        }
      ],
      "name": "random",
      "outputs": [
        {
          "name": "",
          "type": "uint256"
        }
      ],
      "payable": false,
      "stateMutability": "view",
      "type": "function"
    }
  ],
  "bytecode": "0x60806040526000600155600060025534801561001a57600080fd5b506100686040805190810160405280600a81526020017f436861726d616e64657200000000000000000000000000000000000000000000815250610107640100000000026401000000009004565b6100b56040805190810160405280600981526020017f42756c6261736175720000000000000000000000000000000000000000000000815250610107640100000000026401000000009004565b6101026040805190810160405280600381526020017f78797a0000000000000000000000000000000000000000000000000000000000815250610107640100000000026401000000009004565b610228565b6001600081548092919060010191905055506060604051908101604052806001548152602001600181526020018281525060008060015481526020019081526020016000206000820151816000015560208201518160010155604082015181600201908051906020019061017c929190610183565b5090505050565b828054600181600116156101000203166002900490600052602060002090601f016020900481019282601f106101c457805160ff19168380011785556101f2565b828001600101855582156101f2579182015b828111156101f15782518255916020019190600101906101d6565b5b5090506101ff9190610203565b5090565b61022591905b80821115610221576000816000905550600101610209565b5090565b90565b610931806102376000396000f30060806040526004361061006d576000357c0100000000000000000000000000000000000000000000000000000000900463ffffffff1680631aa3a00814610072578063223668441461009d578063b863bd37146100c8578063b87d8fa714610105578063bd6ede731461011c575b600080fd5b34801561007e57600080fd5b50610087610147565b6040516100949190610897565b60405180910390f35b3480156100a957600080fd5b506100b2610368565b6040516100bf919061085c565b60405180910390f35b3480156100d457600080fd5b506100ef60048036036100ea9190810190610761565b6103bc565b6040516100fc9190610897565b60405180910390f35b34801561011157600080fd5b5061011a61045e565b005b34801561012857600080fd5b50610131610561565b60405161013e919061083a565b60405180910390f35b600060011515600560003373ffffffffffffffffffffffffffffffffffffffff1673ffffffffffffffffffffffffffffffffffffffff16815260200190815260200160002060009054906101000a900460ff161515141515156101df576040517f08c379a00000000000000000000000000000000000000000000000000000000081526004016101d690610877565b60405180910390fd5b6002600081548092919060010191905055503360046000600254815260200190815260200160002060006101000a81548173ffffffffffffffffffffffffffffffffffffffff021916908373ffffffffffffffffffffffffffffffffffffffff160217905550600360003373ffffffffffffffffffffffffffffffffffffffff1673ffffffffffffffffffffffffffffffffffffffff16815260200190815260200160002060008061029160036103bc565b8152602001908152602001600020908060018154018082558091505090600182039060005260206000209060030201600090919290919091506000820154816000015560018201548160010155600282018160020190805460018160011615610100020316600290046103059291906106a1565b505050506001600560003373ffffffffffffffffffffffffffffffffffffffff1673ffffffffffffffffffffffffffffffffffffffff16815260200190815260200160002060006101000a81548160ff0219169083151502179055506001905090565b6000600560003373ffffffffffffffffffffffffffffffffffffffff1673ffffffffffffffffffffffffffffffffffffffff16815260200190815260200160002060009054906101000a900460ff16905090565b600081424460405160200180838152602001828152602001925050506040516020818303038152906040526040518082805190602001908083835b60208310151561041c57805182526020820191506020810190506020830392506103f7565b6001836020036101000a03801982511681845116808217855250505050505090500191505060405180910390206001900481151561045657fe5b069050919050565b600061046a60036103bc565b9050600360003373ffffffffffffffffffffffffffffffffffffffff1673ffffffffffffffffffffffffffffffffffffffff168152602001908152602001600020600080838152602001908152602001600020908060018154018082558091505090600182039060005260206000209060030201600090919290919091506000820154816000015560018201548160010155600282018160020190805460018160011615610100020316600290046105239291906106a1565b505050507ffc3b4e616fc5bb4b6be776059d23236afe5bfa0ab179827a5dc24aa9131506c3816040516105569190610897565b60405180910390a150565b6060600080600090505b600360003373ffffffffffffffffffffffffffffffffffffffff1673ffffffffffffffffffffffffffffffffffffffff1681526020019081526020016000208054905081101561064a5781600360003373ffffffffffffffffffffffffffffffffffffffff1673ffffffffffffffffffffffffffffffffffffffff1681526020019081526020016000208281548110151561060257fe5b9060005260206000209060030201600001549080600181540180825580915050906001820390600052602060002001600090919290919091505550808060010191505061056b565b8180548060200260200160405190810160405280929190818152602001828054801561069557602002820191906000526020600020905b815481526020019060010190808311610681575b50505050509250505090565b828054600181600116156101000203166002900490600052602060002090601f016020900481019282601f106106da5780548555610717565b8280016001018555821561071757600052602060002091601f016020900482015b828111156107165782548255916001019190600101906106fb565b5b5090506107249190610728565b5090565b61074a91905b8082111561074657600081600090555060010161072e565b5090565b90565b600061075982356108ed565b905092915050565b60006020828403121561077357600080fd5b60006107818482850161074d565b91505092915050565b6000610795826108bf565b8084526020840193506107a7836108b2565b60005b828110156107d9576107bd86835161082b565b6107c6826108ca565b91506020860195506001810190506107aa565b50849250505092915050565b6107ee816108d7565b82525050565b6000601782527f7573657220616c726561647920726567697374657265640000000000000000006020830152604082019050919050565b610834816108e3565b82525050565b60006020820190508181036000830152610854818461078a565b905092915050565b600060208201905061087160008301846107e5565b92915050565b60006020820190508181036000830152610890816107f4565b9050919050565b60006020820190506108ac600083018461082b565b92915050565b6000602082019050919050565b600081519050919050565b6000602082019050919050565b60008115159050919050565b6000819050919050565b60008190509190505600a265627a7a7230582084eeed58d20a3fac29e0c47cefb9e5ae4e93d7f8ef0eb946fb94a8475cf99a1d6c6578706572696d656e74616cf50037",
  "source": "pragma solidity ^0.4.17;\npragma experimental ABIEncoderV2;\n\ncontract PokemonDApp {\n    struct pokemon {\n        uint id;\n        uint value;\n        string name;\n    }\n    mapping (uint => pokemon) pokemons;\n    uint pokemonCount = 0;\n    event newPokemon(uint id);\n    // pokemons[0] = pokemon(0,1,\"Squirtle\"); \n    // pokemons[1] = pokemon(1,1,\"Charmander\");\n    function addPokemon(string _name) private {\n        pokemonCount ++;\n        pokemons[pokemonCount] = pokemon(pokemonCount, 1, _name);\n        \n    }\n    constructor() public {\n        addPokemon(\"Charmander\");\n        addPokemon(\"Bulbasaur\");\n        addPokemon(\"xyz\");\n    \n    }\n    int playerCount = 0;\n    mapping (address  => pokemon[]) pokemonMap;\n    mapping (int => address) playermap;\n    mapping (address => bool) registered;\n    function register() public returns(uint){\n        require(registered[msg.sender]!=true,\"user already registered\");\n        playerCount++;\n        playermap[playerCount] = msg.sender;\n        pokemonMap[msg.sender].push(pokemons[random(uint(3))]);\n        registered[msg.sender] = true;\n        return 1;\n    }\n    \n    function getPokemons() public view returns(uint[]) {\n        uint[] temp;\n        for(uint i=0;i<pokemonMap[msg.sender].length;i++) {\n            temp.push(pokemonMap[msg.sender][i].id);\n        }\n        //return (pokemonMap[addr].id,pokemonMap[addr].value,pokemonMap[addr].name);\n        return temp;\n    }\n    \n    function isRegistered() public view returns(bool) {\n        return registered[msg.sender];\n    }\n\n    function randomDrop() public {\n        uint rand = random(uint(3));\n        pokemonMap[msg.sender].push(pokemons[rand]);\n        newPokemon(rand);\n    }\n\n    function random(uint num) public view returns(uint) {\n        return uint256(keccak256(abi.encodePacked(block.timestamp, block.difficulty)))%num;\n    }\n    \n    \n    \n}",
  "sourcePath": "/home/harsha/4-1/BC/Pokemon-DApp/pokemon/contracts/PokemonDApp.sol",
  "compiler": {
    "name": "solc",
    "version": "0.4.24+commit.e67f0147.Emscripten.clang"
  },
  "schemaVersion": "2.0.1",
  "updatedAt": "2018-11-13T22:51:27.584Z"
}