{
  "contractName": "PokemonDApp",
  "abi": [
    {
      "inputs": [],
      "payable": false,
      "stateMutability": "nonpayable",
      "type": "constructor"
    },
    {
      "constant": false,
      "inputs": [],
      "name": "register",
      "outputs": [
        {
          "name": "",
          "type": "uint256"
        }
      ],
      "payable": false,
      "stateMutability": "nonpayable",
      "type": "function"
    },
    {
      "constant": true,
      "inputs": [],
      "name": "getPokemons",
      "outputs": [
        {
          "name": "",
          "type": "uint256[]"
        }
      ],
      "payable": false,
      "stateMutability": "view",
      "type": "function"
    },
    {
      "constant": true,
      "inputs": [
        {
          "name": "num",
          "type": "uint256"
        }
      ],
      "name": "random",
      "outputs": [
        {
          "name": "",
          "type": "uint256"
        }
      ],
      "payable": false,
      "stateMutability": "view",
      "type": "function"
    }
  ],
  "bytecode": "0x60806040526000600155600060025534801561001a57600080fd5b506100686040805190810160405280600a81526020017f436861726d616e64657200000000000000000000000000000000000000000000815250610107640100000000026401000000009004565b6100b56040805190810160405280600981526020017f42756c6261736175720000000000000000000000000000000000000000000000815250610107640100000000026401000000009004565b6101026040805190810160405280600381526020017f78797a0000000000000000000000000000000000000000000000000000000000815250610107640100000000026401000000009004565b610228565b6001600081548092919060010191905055506060604051908101604052806001548152602001600181526020018281525060008060015481526020019081526020016000206000820151816000015560208201518160010155604082015181600201908051906020019061017c929190610183565b5090505050565b828054600181600116156101000203166002900490600052602060002090601f016020900481019282601f106101c457805160ff19168380011785556101f2565b828001600101855582156101f2579182015b828111156101f15782518255916020019190600101906101d6565b5b5090506101ff9190610203565b5090565b61022591905b80821115610221576000816000905550600101610209565b5090565b90565b61074f806102376000396000f300608060405260043610610057576000357c0100000000000000000000000000000000000000000000000000000000900463ffffffff1680631aa3a0081461005c578063b863bd3714610087578063bd6ede73146100c4575b600080fd5b34801561006857600080fd5b506100716100ef565b60405161007e91906106c1565b60405180910390f35b34801561009357600080fd5b506100ae60048036036100a991908101906105b5565b610313565b6040516100bb91906106c1565b60405180910390f35b3480156100d057600080fd5b506100d96103b5565b6040516100e6919061067f565b60405180910390f35b600060011515600560003373ffffffffffffffffffffffffffffffffffffffff1673ffffffffffffffffffffffffffffffffffffffff16815260200190815260200160002060009054906101000a900460ff16151514151515610187576040517f08c379a000000000000000000000000000000000000000000000000000000000815260040161017e906106a1565b60405180910390fd5b6002600081548092919060010191905055503360046000600254815260200190815260200160002060006101000a81548173ffffffffffffffffffffffffffffffffffffffff021916908373ffffffffffffffffffffffffffffffffffffffff160217905550600360003373ffffffffffffffffffffffffffffffffffffffff1673ffffffffffffffffffffffffffffffffffffffff168152602001908152602001600020600080600161023b6003610313565b018152602001908152602001600020908060018154018082558091505090600182039060005260206000209060030201600090919290919091506000820154816000015560018201548160010155600282018160020190805460018160011615610100020316600290046102b09291906104f5565b505050506001600560003373ffffffffffffffffffffffffffffffffffffffff1673ffffffffffffffffffffffffffffffffffffffff16815260200190815260200160002060006101000a81548160ff0219169083151502179055506001905090565b600081424460405160200180838152602001828152602001925050506040516020818303038152906040526040518082805190602001908083835b602083101515610373578051825260208201915060208101905060208303925061034e565b6001836020036101000a0380198251168184511680821785525050505050509050019150506040518091039020600190048115156103ad57fe5b069050919050565b6060600080600090505b600360003373ffffffffffffffffffffffffffffffffffffffff1673ffffffffffffffffffffffffffffffffffffffff1681526020019081526020016000208054905081101561049e5781600360003373ffffffffffffffffffffffffffffffffffffffff1673ffffffffffffffffffffffffffffffffffffffff1681526020019081526020016000208281548110151561045657fe5b906000526020600020906003020160000154908060018154018082558091505090600182039060005260206000200160009091929091909150555080806001019150506103bf565b818054806020026020016040519081016040528092919081815260200182805480156104e957602002820191906000526020600020905b8154815260200190600101908083116104d5575b50505050509250505090565b828054600181600116156101000203166002900490600052602060002090601f016020900481019282601f1061052e578054855561056b565b8280016001018555821561056b57600052602060002091601f016020900482015b8281111561056a57825482559160010191906001019061054f565b5b509050610578919061057c565b5090565b61059e91905b8082111561059a576000816000905550600101610582565b5090565b90565b60006105ad823561070b565b905092915050565b6000602082840312156105c757600080fd5b60006105d5848285016105a1565b91505092915050565b60006105e9826106e9565b8084526020840193506105fb836106dc565b60005b8281101561062d57610611868351610670565b61061a826106f4565b91506020860195506001810190506105fe565b50849250505092915050565b6000601782527f7573657220616c726561647920726567697374657265640000000000000000006020830152604082019050919050565b61067981610701565b82525050565b6000602082019050818103600083015261069981846105de565b905092915050565b600060208201905081810360008301526106ba81610639565b9050919050565b60006020820190506106d66000830184610670565b92915050565b6000602082019050919050565b600081519050919050565b6000602082019050919050565b6000819050919050565b60008190509190505600a265627a7a72305820ba545d6a60d5609d69c88c67065fc30c28775d4d085c71ba8a49d53ab3aa7a9b6c6578706572696d656e74616cf50037",
  "source": "pragma solidity ^0.4.17;\npragma experimental ABIEncoderV2;\n\ncontract PokemonDApp {\n    struct pokemon {\n        uint id;\n        uint value;\n        string name;\n    }\n    mapping (uint => pokemon) pokemons;\n    uint pokemonCount = 0;\n    // pokemons[0] = pokemon(0,1,\"Squirtle\"); \n    // pokemons[1] = pokemon(1,1,\"Charmander\");\n    function addPokemon(string _name) private {\n        pokemonCount ++;\n        pokemons[pokemonCount] = pokemon(pokemonCount, 1, _name);\n        \n    }\n    constructor() public {\n        addPokemon(\"Charmander\");\n        addPokemon(\"Bulbasaur\");\n        addPokemon(\"xyz\");\n    \n    }\n    int playerCount = 0;\n    mapping (address  => pokemon[]) pokemonMap;\n    mapping (int => address) playermap;\n    mapping (address => bool) registered;\n    function register() public returns(uint){\n        require(registered[msg.sender]!=true,\"user already registered\");\n        playerCount++;\n        playermap[playerCount] = msg.sender;\n        pokemonMap[msg.sender].push(pokemons[random(uint(3))+1]);\n        registered[msg.sender] = true;\n        return 1;\n    }\n    \n    function getPokemons() public view returns(uint[]) {\n        uint[] temp;\n        for(uint i=0;i<pokemonMap[msg.sender].length;i++) {\n            temp.push(pokemonMap[msg.sender][i].id);\n        }\n        //return (pokemonMap[addr].id,pokemonMap[addr].value,pokemonMap[addr].name);\n        return temp;\n    }\n    \n    function random(uint num) public view returns(uint) {\n        return uint256(keccak256(abi.encodePacked(block.timestamp, block.difficulty)))%num;\n    }\n    \n    \n    \n}",
  "sourcePath": "/home/harsha/4-1/BC/Pokemon-DApp/pokemon/contracts/PokemonDApp.sol",
  "compiler": {
    "name": "solc",
    "version": "0.4.24+commit.e67f0147.Emscripten.clang"
  },
  "schemaVersion": "2.0.1",
  "updatedAt": "2018-11-13T18:57:40.029Z"
}