{
  "contractName": "PokemonDApp",
  "abi": [
    {
      "constant": true,
      "inputs": [
        {
          "name": "",
          "type": "uint256"
        }
      ],
      "name": "pokemons",
      "outputs": [
        {
          "name": "id",
          "type": "uint256"
        },
        {
          "name": "name",
          "type": "string"
        },
        {
          "name": "level",
          "type": "uint256"
        }
      ],
      "payable": false,
      "stateMutability": "view",
      "type": "function"
    },
    {
      "constant": true,
      "inputs": [],
      "name": "pokemonCount",
      "outputs": [
        {
          "name": "",
          "type": "uint256"
        }
      ],
      "payable": false,
      "stateMutability": "view",
      "type": "function"
    },
    {
      "inputs": [],
      "payable": false,
      "stateMutability": "nonpayable",
      "type": "constructor"
    },
    {
      "constant": true,
      "inputs": [],
      "name": "getArrayLength",
      "outputs": [
        {
          "name": "",
          "type": "uint256"
        }
      ],
      "payable": false,
      "stateMutability": "view",
      "type": "function"
    },
    {
      "constant": false,
      "inputs": [
        {
          "name": "_id",
          "type": "uint256"
        }
      ],
      "name": "catchPokemon",
      "outputs": [],
      "payable": false,
      "stateMutability": "nonpayable",
      "type": "function"
    }
  ],
  "bytecode": "0x6080604052600060025534801561001557600080fd5b506100636040805190810160405280600781526020017f50696b61636875000000000000000000000000000000000000000000000000008152506100b5640100000000026401000000009004565b6100b06040805190810160405280600981526020017f42756c62617361757200000000000000000000000000000000000000000000008152506100b5640100000000026401000000009004565b6101d6565b600260008154809291906001019190505550606060405190810160405280600254815260200182815260200160018152506000806002548152602001908152602001600020600082015181600001556020820151816001019080519060200190610120929190610131565b506040820151816002015590505050565b828054600181600116156101000203166002900490600052602060002090601f016020900481019282601f1061017257805160ff19168380011785556101a0565b828001600101855582156101a0579182015b8281111561019f578251825591602001919060010190610184565b5b5090506101ad91906101b1565b5090565b6101d391905b808211156101cf5760008160009055506001016101b7565b5090565b90565b610434806101e56000396000f300608060405260043610610062576000357c0100000000000000000000000000000000000000000000000000000000900463ffffffff1680630849cc991461006757806385831079146100925780638a6b8e2214610146578063cfbd5bce14610173575b600080fd5b34801561007357600080fd5b5061007c61019e565b6040518082815260200191505060405180910390f35b34801561009e57600080fd5b506100bd600480360381019080803590602001909291905050506101eb565b6040518084815260200180602001838152602001828103825284818151815260200191508051906020019080838360005b838110156101095780820151818401526020810190506100ee565b50505050905090810190601f1680156101365780820380516001836020036101000a031916815260200191505b5094505050505060405180910390f35b34801561015257600080fd5b50610171600480360381019080803590602001909291905050506102ad565b005b34801561017f57600080fd5b50610188610402565b6040518082815260200191505060405180910390f35b6000600160003373ffffffffffffffffffffffffffffffffffffffff1673ffffffffffffffffffffffffffffffffffffffff16815260200190815260200160002060000180549050905090565b6000602052806000526040600020600091509050806000015490806001018054600181600116156101000203166002900480601f01602080910402602001604051908101604052809291908181526020018280546001816001161561010002031660029004801561029d5780601f106102725761010080835404028352916020019161029d565b820191906000526020600020905b81548152906001019060200180831161028057829003601f168201915b5050505050908060020154905083565b6000806000600160003373ffffffffffffffffffffffffffffffffffffffff1673ffffffffffffffffffffffffffffffffffffffff16815260200190815260200160002060000180549050925060009150600090505b828110156103825783600160003373ffffffffffffffffffffffffffffffffffffffff1673ffffffffffffffffffffffffffffffffffffffff1681526020019081526020016000206000018281548110151561035b57fe5b906000526020600020015414156103755760019150610382565b8080600101915050610303565b6000151582151514156103fc57600160003373ffffffffffffffffffffffffffffffffffffffff1673ffffffffffffffffffffffffffffffffffffffff1681526020019081526020016000206000018490806001815401808255809150509060018203906000526020600020016000909192909190915055505b50505050565b600254815600a165627a7a7230582072afd21a723d77e6f5265910fd18375991d3f8811693399620ae77a7b651ebef0029",
  "source": "pragma solidity ^0.4.24;\n\ncontract PokemonDApp {\n    struct Pokemon {\n        uint id;\n        string name;\n        uint level;\n    }\n    struct owned_pokemons {\n        uint[] id;\n    }\n    mapping(uint => Pokemon) public pokemons;\n    mapping(address => owned_pokemons) players;\n    uint public pokemonCount = 0;\n    function addPokemon(string _name) private {\n        pokemonCount ++;\n        pokemons[pokemonCount] = Pokemon(pokemonCount, _name, 1);\n        \n    }\n    constructor() public {\n        addPokemon(\"Pikachu\");\n        addPokemon(\"Bulbasaur\");\n    }\n    function getArrayLength() public view returns(uint) {\n        return players[msg.sender].id.length;\n    }\n    function catchPokemon(uint _id) public {\n        uint len = players[msg.sender].id.length;\n        bool flag = false;\n        for(uint i = 0; i < len; i++) {\n            if(players[msg.sender].id[i] == _id) {\n                flag = true;\n                break;\n            }\n        }\n        if(flag == false) {\n            players[msg.sender].id.push(_id);\n        }\n    }\n}",
  "sourcePath": "/home/aniket/Desktop/Pokemon-DApp/pokemon/contracts/PokemonDApp.sol",
  "compiler": {
    "name": "solc",
    "version": "0.4.24+commit.e67f0147.Emscripten.clang"
  },
  "schemaVersion": "2.0.1",
  "updatedAt": "2018-11-12T13:21:51.475Z"
}