{
  "contractName": "PokemonDApp",
  "abi": [
    {
      "constant": true,
      "inputs": [
        {
          "name": "",
          "type": "uint256"
        }
      ],
      "name": "tradepoks",
      "outputs": [
        {
          "name": "id",
          "type": "uint256"
        },
        {
          "name": "account",
          "type": "address"
        },
        {
          "name": "cost",
          "type": "uint256"
        }
      ],
      "payable": false,
      "stateMutability": "view",
      "type": "function"
    },
    {
      "constant": true,
      "inputs": [],
      "name": "tradepokcount",
      "outputs": [
        {
          "name": "",
          "type": "uint256"
        }
      ],
      "payable": false,
      "stateMutability": "view",
      "type": "function"
    },
    {
      "constant": true,
      "inputs": [
        {
          "name": "",
          "type": "uint256"
        }
      ],
      "name": "pokemons",
      "outputs": [
        {
          "name": "id",
          "type": "uint256"
        },
        {
          "name": "level",
          "type": "uint256"
        },
        {
          "name": "name",
          "type": "string"
        }
      ],
      "payable": false,
      "stateMutability": "view",
      "type": "function"
    },
    {
      "constant": true,
      "inputs": [],
      "name": "pokemonCount",
      "outputs": [
        {
          "name": "",
          "type": "uint256"
        }
      ],
      "payable": false,
      "stateMutability": "view",
      "type": "function"
    },
    {
      "inputs": [],
      "payable": false,
      "stateMutability": "nonpayable",
      "type": "constructor"
    },
    {
      "constant": false,
      "inputs": [],
      "name": "register",
      "outputs": [],
      "payable": true,
      "stateMutability": "payable",
      "type": "function"
    },
    {
      "constant": false,
      "inputs": [
        {
          "name": "i",
          "type": "uint256"
        }
      ],
      "name": "catching",
      "outputs": [],
      "payable": false,
      "stateMutability": "nonpayable",
      "type": "function"
    },
    {
      "constant": false,
      "inputs": [
        {
          "name": "id",
          "type": "uint256"
        },
        {
          "name": "cost",
          "type": "uint256"
        }
      ],
      "name": "trade",
      "outputs": [],
      "payable": false,
      "stateMutability": "nonpayable",
      "type": "function"
    },
    {
      "constant": false,
      "inputs": [
        {
          "name": "t",
          "type": "uint256"
        }
      ],
      "name": "buy",
      "outputs": [],
      "payable": true,
      "stateMutability": "payable",
      "type": "function"
    },
    {
      "constant": true,
      "inputs": [],
      "name": "getPokTradeCount",
      "outputs": [
        {
          "name": "",
          "type": "uint256"
        }
      ],
      "payable": false,
      "stateMutability": "view",
      "type": "function"
    },
    {
      "constant": true,
      "inputs": [
        {
          "name": "i",
          "type": "uint256"
        }
      ],
      "name": "getPokTrade",
      "outputs": [
        {
          "name": "",
          "type": "uint256"
        },
        {
          "name": "",
          "type": "uint256"
        },
        {
          "name": "",
          "type": "string"
        },
        {
          "name": "",
          "type": "uint256"
        }
      ],
      "payable": false,
      "stateMutability": "view",
      "type": "function"
    },
    {
      "constant": true,
      "inputs": [
        {
          "name": "i",
          "type": "uint256"
        }
      ],
      "name": "getPok",
      "outputs": [
        {
          "name": "",
          "type": "uint256"
        },
        {
          "name": "",
          "type": "uint256"
        },
        {
          "name": "",
          "type": "string"
        }
      ],
      "payable": false,
      "stateMutability": "view",
      "type": "function"
    },
    {
      "constant": true,
      "inputs": [],
      "name": "getOwnCount",
      "outputs": [
        {
          "name": "",
          "type": "uint256"
        }
      ],
      "payable": false,
      "stateMutability": "view",
      "type": "function"
    },
    {
      "constant": true,
      "inputs": [],
      "name": "getPokemonCount",
      "outputs": [
        {
          "name": "",
          "type": "uint256"
        }
      ],
      "payable": false,
      "stateMutability": "view",
      "type": "function"
    },
    {
      "constant": true,
      "inputs": [
        {
          "name": "i",
          "type": "uint256"
        }
      ],
      "name": "getOwnPok",
      "outputs": [
        {
          "name": "",
          "type": "uint256"
        },
        {
          "name": "",
          "type": "uint256"
        },
        {
          "name": "",
          "type": "string"
        }
      ],
      "payable": false,
      "stateMutability": "view",
      "type": "function"
    },
    {
      "constant": true,
      "inputs": [],
      "name": "getregist",
      "outputs": [
        {
          "name": "",
          "type": "bool"
        }
      ],
      "payable": false,
      "stateMutability": "view",
      "type": "function"
    },
    {
      "constant": false,
      "inputs": [
        {
          "name": "num",
          "type": "uint256"
        }
      ],
      "name": "random",
      "outputs": [
        {
          "name": "",
          "type": "uint256"
        }
      ],
      "payable": false,
      "stateMutability": "nonpayable",
      "type": "function"
    },
    {
      "constant": true,
      "inputs": [],
      "name": "getmoney",
      "outputs": [
        {
          "name": "",
          "type": "uint256"
        }
      ],
      "payable": false,
      "stateMutability": "view",
      "type": "function"
    },
    {
      "constant": false,
      "inputs": [],
      "name": "withdraw",
      "outputs": [],
      "payable": true,
      "stateMutability": "payable",
      "type": "function"
    }
  ],
  "bytecode": "0x60806040523480156200001157600080fd5b50600060018190555060006004819055506000600381905550620000796040805190810160405280600781526020017f50696b61636875000000000000000000000000000000000000000000000000008152506200016c640100000000026401000000009004565b620000c86040805190810160405280600981526020017f42756c62617361757200000000000000000000000000000000000000000000008152506200016c640100000000026401000000009004565b620001176040805190810160405280600a81526020017f436861726d616e646572000000000000000000000000000000000000000000008152506200016c640100000000026401000000009004565b620001666040805190810160405280600881526020017f5371756972746c650000000000000000000000000000000000000000000000008152506200016c640100000000026401000000009004565b6200029a565b6003600081548092919060010191905055506060604051908101604052806003548152602001600181526020018281525060026000600354815260200190815260200160002060008201518160000155602082015181600101556040820151816002019080519060200190620001e4929190620001eb565b5090505050565b828054600181600116156101000203166002900490600052602060002090601f016020900481019282601f106200022e57805160ff19168380011785556200025f565b828001600101855582156200025f579182015b828111156200025e57825182559160200191906001019062000241565b5b5090506200026e919062000272565b5090565b6200029791905b808211156200029357600081600090555060010162000279565b5090565b90565b611ba880620002aa6000396000f3006080604052600436106100fc576000357c0100000000000000000000000000000000000000000000000000000000900463ffffffff168063141ab678146101015780631aa3a0081461012e5780631bc55249146101385780633ccfd60b146101ec578063403e17e3146101f6578063447c7e5e146102b157806360fde4b61461032c57806372f01e4e1461035b578063822e74111461038657806385831079146103b15780638c5aceb7146104655780638d067fc01461049057806393a62aec14610544578063a47d0f8c1461056f578063b863bd371461059a578063cfbd5bce146105db578063d96a094a14610606578063e20be69a14610626575b600080fd5b34801561010d57600080fd5b5061012c6004803603810190808035906020019092919050505061065d565b005b610136610827565b005b34801561014457600080fd5b5061016360048036038101908080359060200190929190505050610b48565b6040518084815260200183815260200180602001828103825283818151815260200191508051906020019080838360005b838110156101af578082015181840152602081019050610194565b50505050905090810190601f1680156101dc5780820380516001836020036101000a031916815260200191505b5094505050505060405180910390f35b6101f4610c3a565b005b34801561020257600080fd5b5061022160048036038101908080359060200190929190505050610dc3565b6040518085815260200184815260200180602001838152602001828103825284818151815260200191508051906020019080838360005b83811015610273578082015181840152602081019050610258565b50505050905090810190601f1680156102a05780820380516001836020036101000a031916815260200191505b509550505050505060405180910390f35b3480156102bd57600080fd5b506102dc60048036038101908080359060200190929190505050610f0e565b604051808481526020018373ffffffffffffffffffffffffffffffffffffffff1673ffffffffffffffffffffffffffffffffffffffff168152602001828152602001935050505060405180910390f35b34801561033857600080fd5b50610341610f58565b604051808215151515815260200191505060405180910390f35b34801561036757600080fd5b50610370610fac565b6040518082815260200191505060405180910390f35b34801561039257600080fd5b5061039b610fb2565b6040518082815260200191505060405180910390f35b3480156103bd57600080fd5b506103dc60048036038101908080359060200190929190505050610ff9565b6040518084815260200183815260200180602001828103825283818151815260200191508051906020019080838360005b8381101561042857808201518184015260208101905061040d565b50505050905090810190601f1680156104555780820380516001836020036101000a031916815260200191505b5094505050505060405180910390f35b34801561047157600080fd5b5061047a6110bb565b6040518082815260200191505060405180910390f35b34801561049c57600080fd5b506104bb60048036038101908080359060200190929190505050611102565b6040518084815260200183815260200180602001828103825283818151815260200191508051906020019080838360005b838110156105075780820151818401526020810190506104ec565b50505050905090810190601f1680156105345780820380516001836020036101000a031916815260200191505b5094505050505060405180910390f35b34801561055057600080fd5b506105596112e4565b6040518082815260200191505060405180910390f35b34801561057b57600080fd5b506105846112ee565b6040518082815260200191505060405180910390f35b3480156105a657600080fd5b506105c5600480360381019080803590602001909291905050506112f8565b6040518082815260200191505060405180910390f35b3480156105e757600080fd5b506105f061132e565b6040518082815260200191505060405180910390f35b61062460048036038101908080359060200190929190505050611334565b005b34801561063257600080fd5b5061065b60048036038101908080359060200190929190803590602001909291905050506117ca565b005b600060011515600960003373ffffffffffffffffffffffffffffffffffffffff1673ffffffffffffffffffffffffffffffffffffffff16815260200190815260200160002060009054906101000a900460ff161515141515610727576040517f08c379a00000000000000000000000000000000000000000000000000000000081526004018080602001828103825260138152602001807f75736572206e6f7420726567697374657265640000000000000000000000000081525060200191505060405180910390fd5b6002600083815260200190815260200160002090508060000154600560003373ffffffffffffffffffffffffffffffffffffffff1673ffffffffffffffffffffffffffffffffffffffff1681526020019081526020016000206000600660003373ffffffffffffffffffffffffffffffffffffffff1673ffffffffffffffffffffffffffffffffffffffff16815260200190815260200160002054815260200190815260200160002081905550600660003373ffffffffffffffffffffffffffffffffffffffff1673ffffffffffffffffffffffffffffffffffffffff168152602001908152602001600020600081548092919060010191905055505050565b600060011515600960003373ffffffffffffffffffffffffffffffffffffffff1673ffffffffffffffffffffffffffffffffffffffff16815260200190815260200160002060009054906101000a900460ff161515141515156108f2576040517f08c379a00000000000000000000000000000000000000000000000000000000081526004018080602001828103825260178152602001807f7573657220616c7265616479207265676973746572656400000000000000000081525060200191505060405180910390fd5b6002600060016004805481151561090557fe5b0601815260200190815260200160002090506004600081548092919060010191905055506000600660003373ffffffffffffffffffffffffffffffffffffffff1673ffffffffffffffffffffffffffffffffffffffff168152602001908152602001600020819055503360086000600454815260200190815260200160002060006101000a81548173ffffffffffffffffffffffffffffffffffffffff021916908373ffffffffffffffffffffffffffffffffffffffff1602179055508060000154600560003373ffffffffffffffffffffffffffffffffffffffff1673ffffffffffffffffffffffffffffffffffffffff1681526020019081526020016000206000600660003373ffffffffffffffffffffffffffffffffffffffff1673ffffffffffffffffffffffffffffffffffffffff16815260200190815260200160002054815260200190815260200160002081905550600660003373ffffffffffffffffffffffffffffffffffffffff1673ffffffffffffffffffffffffffffffffffffffff168152602001908152602001600020600081548092919060010191905055506001600960003373ffffffffffffffffffffffffffffffffffffffff1673ffffffffffffffffffffffffffffffffffffffff16815260200190815260200160002060006101000a81548160ff02191690831515021790555034600a60003373ffffffffffffffffffffffffffffffffffffffff1673ffffffffffffffffffffffffffffffffffffffff1681526020019081526020016000208190555050565b60008060606002600085815260200190815260200160002060000154600260008681526020019081526020016000206001015460026000878152602001908152602001600020600201808054600181600116156101000203166002900480601f016020809104026020016040519081016040528092919081815260200182805460018160011615610100020316600290048015610c265780601f10610bfb57610100808354040283529160200191610c26565b820191906000526020600020905b815481529060010190602001808311610c0957829003601f168201915b505050505090509250925092509193909250565b600080600a60003373ffffffffffffffffffffffffffffffffffffffff1673ffffffffffffffffffffffffffffffffffffffff16815260200190815260200160002054111515610cf2576040517f08c379a00000000000000000000000000000000000000000000000000000000081526004018080602001828103825260128152602001807f4e6f2070656e64696e672072657475726e73000000000000000000000000000081525060200191505060405180910390fd5b600a60003373ffffffffffffffffffffffffffffffffffffffff1673ffffffffffffffffffffffffffffffffffffffff1681526020019081526020016000205490503373ffffffffffffffffffffffffffffffffffffffff166108fc829081150290604051600060405180830381858888f19350505050158015610d7a573d6000803e3d6000fd5b506000600a60003373ffffffffffffffffffffffffffffffffffffffff1673ffffffffffffffffffffffffffffffffffffffff1681526020019081526020016000208190555050565b6000806060600060026000806000888152602001908152602001600020600001548152602001908152602001600020600001546002600080600089815260200190815260200160002060000154815260200190815260200160002060010154600260008060008a815260200190815260200160002060000154815260200190815260200160002060020160008089815260200190815260200160002060020154818054600181600116156101000203166002900480601f016020809104026020016040519081016040528092919081815260200182805460018160011615610100020316600290048015610ef85780601f10610ecd57610100808354040283529160200191610ef8565b820191906000526020600020905b815481529060010190602001808311610edb57829003601f168201915b5050505050915093509350935093509193509193565b60006020528060005260406000206000915090508060000154908060010160009054906101000a900473ffffffffffffffffffffffffffffffffffffffff16908060020154905083565b6000600960003373ffffffffffffffffffffffffffffffffffffffff1673ffffffffffffffffffffffffffffffffffffffff16815260200190815260200160002060009054906101000a900460ff16905090565b60015481565b6000600a60003373ffffffffffffffffffffffffffffffffffffffff1673ffffffffffffffffffffffffffffffffffffffff16815260200190815260200160002054905090565b6002602052806000526040600020600091509050806000015490806001015490806002018054600181600116156101000203166002900480601f0160208091040260200160405190810160405280929190818152602001828054600181600116156101000203166002900480156110b15780601f10611086576101008083540402835291602001916110b1565b820191906000526020600020905b81548152906001019060200180831161109457829003601f168201915b5050505050905083565b6000600660003373ffffffffffffffffffffffffffffffffffffffff1673ffffffffffffffffffffffffffffffffffffffff16815260200190815260200160002054905090565b600080606060026000600560003373ffffffffffffffffffffffffffffffffffffffff1673ffffffffffffffffffffffffffffffffffffffff16815260200190815260200160002060008781526020019081526020016000205481526020019081526020016000206000015460026000600560003373ffffffffffffffffffffffffffffffffffffffff1673ffffffffffffffffffffffffffffffffffffffff16815260200190815260200160002060008881526020019081526020016000205481526020019081526020016000206001015460026000600560003373ffffffffffffffffffffffffffffffffffffffff1673ffffffffffffffffffffffffffffffffffffffff1681526020019081526020016000206000898152602001908152602001600020548152602001908152602001600020600201808054600181600116156101000203166002900480601f0160208091040260200160405190810160405280929190818152602001828054600181600116156101000203166002900480156112d05780601f106112a5576101008083540402835291602001916112d0565b820191906000526020600020905b8154815290600101906020018083116112b357829003601f168201915b505050505090509250925092509193909250565b6000600154905090565b6000600354905090565b6000814244604051808381526020018281526020019250505060405180910390206001900481151561132657fe5b069050919050565b60035481565b60008060008060011515600960003373ffffffffffffffffffffffffffffffffffffffff1673ffffffffffffffffffffffffffffffffffffffff16815260200190815260200160002060009054906101000a900460ff161515141515611402576040517f08c379a00000000000000000000000000000000000000000000000000000000081526004018080602001828103825260138152602001807f75736572206e6f7420726567697374657265640000000000000000000000000081525060200191505060405180910390fd5b60008086815260200190815260200160002060000154935060008086815260200190815260200160002060020154925082600a60003373ffffffffffffffffffffffffffffffffffffffff1673ffffffffffffffffffffffffffffffffffffffff16815260200190815260200160002054101515156114e9576040517f08c379a00000000000000000000000000000000000000000000000000000000081526004018080602001828103825260148152602001807f496e73756666696369656e742062616c616e636500000000000000000000000081525060200191505060405180910390fd5b60008086815260200190815260200160002060010160009054906101000a900473ffffffffffffffffffffffffffffffffffffffff1691508490505b60018054038110156115e357600080600183018152602001908152602001600020600080838152602001908152602001600020600082015481600001556001820160009054906101000a900473ffffffffffffffffffffffffffffffffffffffff168160010160006101000a81548173ffffffffffffffffffffffffffffffffffffffff021916908373ffffffffffffffffffffffffffffffffffffffff160217905550600282015481600201559050508080600101915050611525565b600080600180540381526020019081526020016000206000808201600090556001820160006101000a81549073ffffffffffffffffffffffffffffffffffffffff0219169055600282016000905550506001600081548092919060019003919050555083600560003373ffffffffffffffffffffffffffffffffffffffff1673ffffffffffffffffffffffffffffffffffffffff1681526020019081526020016000206000600660003373ffffffffffffffffffffffffffffffffffffffff1673ffffffffffffffffffffffffffffffffffffffff1681526020019081526020016000205481526020019081526020016000208190555082600a60003373ffffffffffffffffffffffffffffffffffffffff1673ffffffffffffffffffffffffffffffffffffffff1681526020019081526020016000206000828254039250508190555082600a60008473ffffffffffffffffffffffffffffffffffffffff1673ffffffffffffffffffffffffffffffffffffffff16815260200190815260200160002060008282540192505081905550600660003373ffffffffffffffffffffffffffffffffffffffff1673ffffffffffffffffffffffffffffffffffffffff168152602001908152602001600020600081548092919060010191905055505050505050565b600080600060011515600960003373ffffffffffffffffffffffffffffffffffffffff1673ffffffffffffffffffffffffffffffffffffffff16815260200190815260200160002060009054906101000a900460ff161515141515611897576040517f08c379a00000000000000000000000000000000000000000000000000000000081526004018080602001828103825260138152602001807f75736572206e6f7420726567697374657265640000000000000000000000000081525060200191505060405180910390fd5b600660003373ffffffffffffffffffffffffffffffffffffffff1673ffffffffffffffffffffffffffffffffffffffff16815260200190815260200160002054925060009150600091505b82821015611a185784600560003373ffffffffffffffffffffffffffffffffffffffff1673ffffffffffffffffffffffffffffffffffffffff1681526020019081526020016000206000848152602001908152602001600020541415611a0b578190505b60018303811015611a0657600560003373ffffffffffffffffffffffffffffffffffffffff1673ffffffffffffffffffffffffffffffffffffffff168152602001908152602001600020600060018301815260200190815260200160002054600560003373ffffffffffffffffffffffffffffffffffffffff1673ffffffffffffffffffffffffffffffffffffffff1681526020019081526020016000206000838152602001908152602001600020819055508080600101915050611946565b611a18565b81806001019250506118e2565b600560003373ffffffffffffffffffffffffffffffffffffffff1673ffffffffffffffffffffffffffffffffffffffff168152602001908152602001600020600060018503815260200190815260200160002060009055600660003373ffffffffffffffffffffffffffffffffffffffff1673ffffffffffffffffffffffffffffffffffffffff16815260200190815260200160002060008154809291906001900391905055506060604051908101604052808681526020013373ffffffffffffffffffffffffffffffffffffffff1681526020018581525060008060015481526020019081526020016000206000820151816000015560208201518160010160006101000a81548173ffffffffffffffffffffffffffffffffffffffff021916908373ffffffffffffffffffffffffffffffffffffffff1602179055506040820151816002015590505060016000815480929190600101919050555050505050505600a165627a7a7230582046fff18922f62c895394f086cbb8bcf028e5c87f7de13438a7b51b582ceabe880029",
  "source": "pragma solidity ^0.4.17;\n// pragma experimental ABIEncoderV2;\n\ncontract PokemonDApp {\n    struct pokemon {\n        uint id;\n        uint level;\n        string name;\n    }\n\n    struct tradepok{\n        uint id;\n        address account;\n        uint cost;\n        // uint cost;        \n    }\n    mapping (uint => tradepok) public tradepoks;\n    uint public tradepokcount;\n    mapping (uint => pokemon) public pokemons;\n    uint public pokemonCount ;\n    // pokemons[0] = pokemon(0,1,\"Squirtle\"); \n    // pokemons[1] = pokemon(1,1,\"Charmander\");\n    \n    uint playerCount ;\n    function addPokemon(string _name) private {\n        pokemonCount ++;\n        pokemons[pokemonCount] = pokemon(pokemonCount, 1, _name);\n        \n    }\n    mapping(address => mapping (uint => uint)) ownpokemon;\n    mapping(address => uint) pokecount;\n    constructor() public {\n        tradepokcount = 0;\n        playerCount = 0;\n        pokemonCount =0;\n        addPokemon(\"Pikachu\");\n        addPokemon(\"Bulbasaur\");\n        addPokemon(\"Charmander\");\n        addPokemon(\"Squirtle\");\n    \n    }\n\n    mapping (address  => pokemon[]) pokemonMap;\n    mapping (uint => address) playermap;\n    mapping (address => bool) registered;\n    mapping(address => uint) pendingReturns;\n    function register() public payable {\n        require(registered[msg.sender]!=true,\"user already registered\");\n        pokemon storage p = pokemons[playerCount%4+1];\n        playerCount++;\n        pokecount[msg.sender]=0;\n        playermap[playerCount] = msg.sender;\n        ownpokemon[msg.sender][pokecount[msg.sender]] = (p.id);\n        pokecount[msg.sender]++;\n        registered[msg.sender] = true;\n        pendingReturns[msg.sender]=msg.value;\n    }\n\n    function catching(uint i) public{\n        require(registered[msg.sender]==true,\"user not registered\");\n        pokemon storage p = pokemons[i];\n        ownpokemon[msg.sender][pokecount[msg.sender]] = (p.id);\n        pokecount[msg.sender]++;\n    }\n\n    function trade(uint id,uint cost) public{\n        require(registered[msg.sender]==true,\"user not registered\");\n        uint p  = pokecount[msg.sender];\n        uint i = 0;\n        for(i=0;i<p;i++)\n        {\n            if(ownpokemon[msg.sender][i]==id)\n            {\n                for(uint j=i;j<p-1;j++)\n                {\n                    ownpokemon[msg.sender][j]=ownpokemon[msg.sender][j+1];\n                }\n                break;\n            }\n        }\n        delete ownpokemon[msg.sender][p-1];\n        pokecount[msg.sender]--;\n        tradepoks[tradepokcount] = tradepok({id:id,account:msg.sender,cost:cost}); \n        tradepokcount++;\n    }\n\n    function buy(uint t) public payable{\n        require(registered[msg.sender]==true,\"user not registered\");\n        \n        uint id  = tradepoks[t].id;\n        \n        uint cost  = tradepoks[t].cost;\n        \n        require(pendingReturns[msg.sender]>=cost,\"Insufficient balance\");\n        address addr = tradepoks[t].account;\n        for(uint i=t;i<tradepokcount-1;i++)\n        {\n            tradepoks[i]=tradepoks[i+1];\n        }\n        delete tradepoks[tradepokcount-1];\n        tradepokcount--;\n        ownpokemon[msg.sender][pokecount[msg.sender]] = id;\n        pendingReturns[msg.sender]-=cost;\n        pendingReturns[addr]+=cost;\n        pokecount[msg.sender]++;\n    }\n    function getPokTradeCount() public view returns(uint)\n    {\n        return tradepokcount;\n    }\n    function getPokTrade(uint i) public view returns(uint, uint , string,uint)\n    {\n        return (pokemons[tradepoks[i].id].id,pokemons[tradepoks[i].id].level,pokemons[tradepoks[i].id].name,tradepoks[i].cost);\n    }\n\n    function getPok(uint i) public view returns(uint,uint,string){\n        return (pokemons[i].id,pokemons[i].level,pokemons[i].name);\n    }\n    function getOwnCount() public view returns(uint){\n        return pokecount[msg.sender];\n    }\n    function getPokemonCount() public view returns (uint ){\n        return pokemonCount;\n    }\n    function getOwnPok(uint i) public view returns(uint ,uint ,string ){\n        return (pokemons[ownpokemon[msg.sender][i]].id,pokemons[ownpokemon[msg.sender][i]].level,pokemons[ownpokemon[msg.sender][i]].name);\n    }  \n    function getregist() public view returns (bool){\n        return registered[msg.sender];\n    }\n    function random(uint num) returns(uint) {\n        return uint256(keccak256(block.timestamp, block.difficulty))%num;\n    }\n    function getmoney() public view returns (uint){\n        return pendingReturns[msg.sender];\n    }\n    \n    function withdraw() \n    public\n    payable\n    {\n        require(pendingReturns[msg.sender]>0,\"No pending returns\");\n        uint Balance = pendingReturns[msg.sender];       \n        (msg.sender).transfer(Balance);\n        pendingReturns[msg.sender]=0;\n    }\n}",
  "sourcePath": "/home/aniket/rep/Pokemon-DApp/pokemon/contracts/PokemonDApp.sol",
  "compiler": {
    "name": "solc",
    "version": "0.4.24+commit.e67f0147.Emscripten.clang"
  },
  "schemaVersion": "2.0.1",
  "updatedAt": "2018-11-14T18:07:08.388Z"
}